:100000000C942A000C9434000C9434000C943400AA
:100010000C9434000C9434000C9434000C94340090
:100020000C9434000C9434000C9434000C94340080
:100030000C9434000C9434000C9434000C94340070
:100040000C9434000C9434000C9434000C94340060
:100050000C94340011241FBECFE5D8E0DEBFCDBF25
:100060000E94B1000C9403010C940000D99ADA9814
:10007000DB98DC9A0895843008F072C0683008F08C
:100080006FC0423008F06CC0813001F130F0823036
:10009000B1F1833009F44CC00895413059F42AB3CA
:1000A00081E090E002C0880F991F6A95E2F7822BE9
:1000B0008ABB08952AB381E090E002C0880F991F9F
:1000C0006A95E2F7809582238ABB0895413059F4FE
:1000D00027B381E090E002C0880F991F6A95E2F78C
:1000E000822B87BB089527B381E090E002C0880F80
:1000F000991F6A95E2F78095822387BB0895413066
:1001000059F424B381E090E002C0880F991F6A95EA
:10011000E2F7822B84BB089524B381E090E002C013
:10012000880F991F6A95E2F78095822384BB089512
:10013000413059F422B381E090E002C0880F991F4A
:100140006A95E2F7822B82BB089522B381E090E0AA
:1001500002C0880F991F6A95E2F78095822382BBBF
:10016000089541E065E083E00E943B000E94D400D6
:100170000E94EB008BB341E061E00E943B008BB337
:1001800041E062E00E943B008BB341E063E00E94EB
:100190003B008BB341E064E00E943B000E943600CC
:1001A0008AE50E94F500FFCF8FB58E7F8FBD8FB59A
:1001B00082608FBD8EB588608EBD8EB580618EBD2C
:1001C0008FB58F7B8FBD8FB580688FBD87E893E13A
:1001D00097BD86BD08958EB581608EBD8EB5826057
:1001E0008EBD8EB58B7F8EBD08958A3529F484EF40
:1001F00091E09BBD8ABD0895811104C087E791E01D
:0A0200009BBD8ABD0895F894FFCF5E
:00000001FF
